{
	"data": {
		"bytecode": {
			"linkReferences": {},
			"object": "61033f610030600b82828239805160001a6073146000811461002057610022565bfe5b5030600052607381538281f3fe730000000000000000000000000000000000000000301460806040526004361061005d576000357c0100000000000000000000000000000000000000000000000000000000900480637a1b1bb91461006257806382d26d93146100ae575b600080fd5b6100986004803603604081101561007857600080fd5b8101908080359060200190929190803590602001909291905050506100fa565b6040518082815260200191505060405180910390f35b6100e4600480360360408110156100c457600080fd5b81019080803590602001909291908035906020019092919050505061012e565b6040518082815260200191505060405180910390f35b6000806101068461015d565b1180156101135750600082115b156101285760016101248484610174565b0390505b92915050565b60008061013a8461015d565b11156101575761014a8383610174565b6101538461015d565b0390505b92915050565b600061016d828360000154610284565b9050919050565b6000806101808461015d565b111561027d57600080846000015490506000856001016000838152602001908152602001600020905060006101b9878360010154610284565b90505b83151561026e57600082600401805490509050868414156101e05760019450610253565b8684101561021f57826002015493508760010160008581526020019081526020016000209250610214888460010154610284565b810182019150610252565b82600101549350876001016000858152602001908152602001600020925061024b888460020154610284565b8101820391505b5b61025d88856102b5565b151561026857600194505b506101bc565b6001810194505050505061027e565b5b92915050565b6000808360010160008481526020019081526020016000209050806006015481600401805490500191505092915050565b6000808214156102c8576000905061030d565b82600001548214156102dd576001905061030d565b600083600101600084815260200190815260200160002060000154141515610308576001905061030d565b600090505b9291505056fea165627a7a723058202ef68b72d9327d8b26dcd764458e5881afd403fde777943c1833a0b18396430a0029",
			"opcodes": "PUSH2 0x33F PUSH2 0x30 PUSH1 0xB DUP3 DUP3 DUP3 CODECOPY DUP1 MLOAD PUSH1 0x0 BYTE PUSH1 0x73 EQ PUSH1 0x0 DUP2 EQ PUSH2 0x20 JUMPI PUSH2 0x22 JUMP JUMPDEST INVALID JUMPDEST POP ADDRESS PUSH1 0x0 MSTORE PUSH1 0x73 DUP2 MSTORE8 DUP3 DUP2 RETURN INVALID PUSH20 0x0 ADDRESS EQ PUSH1 0x80 PUSH1 0x40 MSTORE PUSH1 0x4 CALLDATASIZE LT PUSH2 0x5D JUMPI PUSH1 0x0 CALLDATALOAD PUSH29 0x100000000000000000000000000000000000000000000000000000000 SWAP1 DIV DUP1 PUSH4 0x7A1B1BB9 EQ PUSH2 0x62 JUMPI DUP1 PUSH4 0x82D26D93 EQ PUSH2 0xAE JUMPI JUMPDEST PUSH1 0x0 DUP1 REVERT JUMPDEST PUSH2 0x98 PUSH1 0x4 DUP1 CALLDATASIZE SUB PUSH1 0x40 DUP2 LT ISZERO PUSH2 0x78 JUMPI PUSH1 0x0 DUP1 REVERT JUMPDEST DUP2 ADD SWAP1 DUP1 DUP1 CALLDATALOAD SWAP1 PUSH1 0x20 ADD SWAP1 SWAP3 SWAP2 SWAP1 DUP1 CALLDATALOAD SWAP1 PUSH1 0x20 ADD SWAP1 SWAP3 SWAP2 SWAP1 POP POP POP PUSH2 0xFA JUMP JUMPDEST PUSH1 0x40 MLOAD DUP1 DUP3 DUP2 MSTORE PUSH1 0x20 ADD SWAP2 POP POP PUSH1 0x40 MLOAD DUP1 SWAP2 SUB SWAP1 RETURN JUMPDEST PUSH2 0xE4 PUSH1 0x4 DUP1 CALLDATASIZE SUB PUSH1 0x40 DUP2 LT ISZERO PUSH2 0xC4 JUMPI PUSH1 0x0 DUP1 REVERT JUMPDEST DUP2 ADD SWAP1 DUP1 DUP1 CALLDATALOAD SWAP1 PUSH1 0x20 ADD SWAP1 SWAP3 SWAP2 SWAP1 DUP1 CALLDATALOAD SWAP1 PUSH1 0x20 ADD SWAP1 SWAP3 SWAP2 SWAP1 POP POP POP PUSH2 0x12E JUMP JUMPDEST PUSH1 0x40 MLOAD DUP1 DUP3 DUP2 MSTORE PUSH1 0x20 ADD SWAP2 POP POP PUSH1 0x40 MLOAD DUP1 SWAP2 SUB SWAP1 RETURN JUMPDEST PUSH1 0x0 DUP1 PUSH2 0x106 DUP5 PUSH2 0x15D JUMP JUMPDEST GT DUP1 ISZERO PUSH2 0x113 JUMPI POP PUSH1 0x0 DUP3 GT JUMPDEST ISZERO PUSH2 0x128 JUMPI PUSH1 0x1 PUSH2 0x124 DUP5 DUP5 PUSH2 0x174 JUMP JUMPDEST SUB SWAP1 POP JUMPDEST SWAP3 SWAP2 POP POP JUMP JUMPDEST PUSH1 0x0 DUP1 PUSH2 0x13A DUP5 PUSH2 0x15D JUMP JUMPDEST GT ISZERO PUSH2 0x157 JUMPI PUSH2 0x14A DUP4 DUP4 PUSH2 0x174 JUMP JUMPDEST PUSH2 0x153 DUP5 PUSH2 0x15D JUMP JUMPDEST SUB SWAP1 POP JUMPDEST SWAP3 SWAP2 POP POP JUMP JUMPDEST PUSH1 0x0 PUSH2 0x16D DUP3 DUP4 PUSH1 0x0 ADD SLOAD PUSH2 0x284 JUMP JUMPDEST SWAP1 POP SWAP2 SWAP1 POP JUMP JUMPDEST PUSH1 0x0 DUP1 PUSH2 0x180 DUP5 PUSH2 0x15D JUMP JUMPDEST GT ISZERO PUSH2 0x27D JUMPI PUSH1 0x0 DUP1 DUP5 PUSH1 0x0 ADD SLOAD SWAP1 POP PUSH1 0x0 DUP6 PUSH1 0x1 ADD PUSH1 0x0 DUP4 DUP2 MSTORE PUSH1 0x20 ADD SWAP1 DUP2 MSTORE PUSH1 0x20 ADD PUSH1 0x0 KECCAK256 SWAP1 POP PUSH1 0x0 PUSH2 0x1B9 DUP8 DUP4 PUSH1 0x1 ADD SLOAD PUSH2 0x284 JUMP JUMPDEST SWAP1 POP JUMPDEST DUP4 ISZERO ISZERO PUSH2 0x26E JUMPI PUSH1 0x0 DUP3 PUSH1 0x4 ADD DUP1 SLOAD SWAP1 POP SWAP1 POP DUP7 DUP5 EQ ISZERO PUSH2 0x1E0 JUMPI PUSH1 0x1 SWAP5 POP PUSH2 0x253 JUMP JUMPDEST DUP7 DUP5 LT ISZERO PUSH2 0x21F JUMPI DUP3 PUSH1 0x2 ADD SLOAD SWAP4 POP DUP8 PUSH1 0x1 ADD PUSH1 0x0 DUP6 DUP2 MSTORE PUSH1 0x20 ADD SWAP1 DUP2 MSTORE PUSH1 0x20 ADD PUSH1 0x0 KECCAK256 SWAP3 POP PUSH2 0x214 DUP9 DUP5 PUSH1 0x1 ADD SLOAD PUSH2 0x284 JUMP JUMPDEST DUP2 ADD DUP3 ADD SWAP2 POP PUSH2 0x252 JUMP JUMPDEST DUP3 PUSH1 0x1 ADD SLOAD SWAP4 POP DUP8 PUSH1 0x1 ADD PUSH1 0x0 DUP6 DUP2 MSTORE PUSH1 0x20 ADD SWAP1 DUP2 MSTORE PUSH1 0x20 ADD PUSH1 0x0 KECCAK256 SWAP3 POP PUSH2 0x24B DUP9 DUP5 PUSH1 0x2 ADD SLOAD PUSH2 0x284 JUMP JUMPDEST DUP2 ADD DUP3 SUB SWAP2 POP JUMPDEST JUMPDEST PUSH2 0x25D DUP9 DUP6 PUSH2 0x2B5 JUMP JUMPDEST ISZERO ISZERO PUSH2 0x268 JUMPI PUSH1 0x1 SWAP5 POP JUMPDEST POP PUSH2 0x1BC JUMP JUMPDEST PUSH1 0x1 DUP2 ADD SWAP5 POP POP POP POP POP PUSH2 0x27E JUMP JUMPDEST JUMPDEST SWAP3 SWAP2 POP POP JUMP JUMPDEST PUSH1 0x0 DUP1 DUP4 PUSH1 0x1 ADD PUSH1 0x0 DUP5 DUP2 MSTORE PUSH1 0x20 ADD SWAP1 DUP2 MSTORE PUSH1 0x20 ADD PUSH1 0x0 KECCAK256 SWAP1 POP DUP1 PUSH1 0x6 ADD SLOAD DUP2 PUSH1 0x4 ADD DUP1 SLOAD SWAP1 POP ADD SWAP2 POP POP SWAP3 SWAP2 POP POP JUMP JUMPDEST PUSH1 0x0 DUP1 DUP3 EQ ISZERO PUSH2 0x2C8 JUMPI PUSH1 0x0 SWAP1 POP PUSH2 0x30D JUMP JUMPDEST DUP3 PUSH1 0x0 ADD SLOAD DUP3 EQ ISZERO PUSH2 0x2DD JUMPI PUSH1 0x1 SWAP1 POP PUSH2 0x30D JUMP JUMPDEST PUSH1 0x0 DUP4 PUSH1 0x1 ADD PUSH1 0x0 DUP5 DUP2 MSTORE PUSH1 0x20 ADD SWAP1 DUP2 MSTORE PUSH1 0x20 ADD PUSH1 0x0 KECCAK256 PUSH1 0x0 ADD SLOAD EQ ISZERO ISZERO PUSH2 0x308 JUMPI PUSH1 0x1 SWAP1 POP PUSH2 0x30D JUMP JUMPDEST PUSH1 0x0 SWAP1 POP JUMPDEST SWAP3 SWAP2 POP POP JUMP INVALID LOG1 PUSH6 0x627A7A723058 KECCAK256 0x2e 0xf6 DUP12 PUSH19 0xD9327D8B26DCD764458E5881AFD403FDE77794 EXTCODECOPY XOR CALLER LOG0 0xb1 DUP4 SWAP7 NUMBER EXP STOP 0x29 "
		},
		"gasEstimates": {
			"creation": {
				"codeDepositCost": "166200",
				"executionCost": "258",
				"totalCost": "166458"
			},
			"external": {
				"above(HitchensOrderStatisticsTreeLib.Tree storage,uint256)": "infinite",
				"below(HitchensOrderStatisticsTreeLib.Tree storage,uint256)": "infinite"
			},
			"internal": {
				"atPercentile(struct HitchensOrderStatisticsTreeLib.Tree storage pointer,uint256)": "infinite",
				"atPermil(struct HitchensOrderStatisticsTreeLib.Tree storage pointer,uint256)": "infinite",
				"atRank(struct HitchensOrderStatisticsTreeLib.Tree storage pointer,uint256)": "infinite",
				"count(struct HitchensOrderStatisticsTreeLib.Tree storage pointer)": "811",
				"exists(struct HitchensOrderStatisticsTreeLib.Tree storage pointer,uint256)": "624",
				"first(struct HitchensOrderStatisticsTreeLib.Tree storage pointer)": "infinite",
				"fixCountRecurse(struct HitchensOrderStatisticsTreeLib.Tree storage pointer,uint256)": "infinite",
				"getNode(struct HitchensOrderStatisticsTreeLib.Tree storage pointer,uint256)": "infinite",
				"getNodeCount(struct HitchensOrderStatisticsTreeLib.Tree storage pointer,uint256)": "559",
				"insert(struct HitchensOrderStatisticsTreeLib.Tree storage pointer,bytes32,uint256)": "infinite",
				"insertFixup(struct HitchensOrderStatisticsTreeLib.Tree storage pointer,uint256)": "infinite",
				"keyExists(struct HitchensOrderStatisticsTreeLib.Tree storage pointer,bytes32,uint256)": "infinite",
				"last(struct HitchensOrderStatisticsTreeLib.Tree storage pointer)": "infinite",
				"median(struct HitchensOrderStatisticsTreeLib.Tree storage pointer)": "infinite",
				"next(struct HitchensOrderStatisticsTreeLib.Tree storage pointer,uint256)": "infinite",
				"percentile(struct HitchensOrderStatisticsTreeLib.Tree storage pointer,uint256)": "infinite",
				"permil(struct HitchensOrderStatisticsTreeLib.Tree storage pointer,uint256)": "infinite",
				"prev(struct HitchensOrderStatisticsTreeLib.Tree storage pointer,uint256)": "infinite",
				"rank(struct HitchensOrderStatisticsTreeLib.Tree storage pointer,uint256)": "infinite",
				"remove(struct HitchensOrderStatisticsTreeLib.Tree storage pointer,bytes32,uint256)": "infinite",
				"removeFixup(struct HitchensOrderStatisticsTreeLib.Tree storage pointer,uint256)": "infinite",
				"replaceParent(struct HitchensOrderStatisticsTreeLib.Tree storage pointer,uint256,uint256)": "infinite",
				"rotateLeft(struct HitchensOrderStatisticsTreeLib.Tree storage pointer,uint256)": "infinite",
				"rotateRight(struct HitchensOrderStatisticsTreeLib.Tree storage pointer,uint256)": "infinite",
				"treeMaximum(struct HitchensOrderStatisticsTreeLib.Tree storage pointer,uint256)": "infinite",
				"treeMinimum(struct HitchensOrderStatisticsTreeLib.Tree storage pointer,uint256)": "infinite",
				"valueKeyAtIndex(struct HitchensOrderStatisticsTreeLib.Tree storage pointer,uint256,uint256)": "infinite"
			}
		},
		"methodIdentifiers": {
			"above(HitchensOrderStatisticsTreeLib.Tree storage,uint256)": "82d26d93",
			"below(HitchensOrderStatisticsTreeLib.Tree storage,uint256)": "7a1b1bb9"
		}
	},
	"abi": [
		{
			"constant": true,
			"inputs": [
				{
					"name": "self",
					"type": "HitchensOrderStatisticsTreeLib.Tree storage"
				},
				{
					"name": "value",
					"type": "uint256"
				}
			],
			"name": "below",
			"outputs": [
				{
					"name": "_below",
					"type": "uint256"
				}
			],
			"payable": false,
			"stateMutability": "view",
			"type": "function"
		},
		{
			"constant": true,
			"inputs": [
				{
					"name": "self",
					"type": "HitchensOrderStatisticsTreeLib.Tree storage"
				},
				{
					"name": "value",
					"type": "uint256"
				}
			],
			"name": "above",
			"outputs": [
				{
					"name": "_above",
					"type": "uint256"
				}
			],
			"payable": false,
			"stateMutability": "view",
			"type": "function"
		}
	]
}